{
  "_format": "hh-sol-artifact-1",
  "contractName": "TransparentDonationTracker",
  "sourceName": "contracts/Donation.sol",
  "abi": [
    {
      "inputs": [],
      "stateMutability": "nonpayable",
      "type": "constructor"
    },
    {
      "inputs": [],
      "name": "ERC721EnumerableForbiddenBatchMint",
      "type": "error"
    },
    {
      "inputs": [
        {
          "internalType": "address",
          "name": "sender",
          "type": "address"
        },
        {
          "internalType": "uint256",
          "name": "tokenId",
          "type": "uint256"
        },
        {
          "internalType": "address",
          "name": "owner",
          "type": "address"
        }
      ],
      "name": "ERC721IncorrectOwner",
      "type": "error"
    },
    {
      "inputs": [
        {
          "internalType": "address",
          "name": "operator",
          "type": "address"
        },
        {
          "internalType": "uint256",
          "name": "tokenId",
          "type": "uint256"
        }
      ],
      "name": "ERC721InsufficientApproval",
      "type": "error"
    },
    {
      "inputs": [
        {
          "internalType": "address",
          "name": "approver",
          "type": "address"
        }
      ],
      "name": "ERC721InvalidApprover",
      "type": "error"
    },
    {
      "inputs": [
        {
          "internalType": "address",
          "name": "operator",
          "type": "address"
        }
      ],
      "name": "ERC721InvalidOperator",
      "type": "error"
    },
    {
      "inputs": [
        {
          "internalType": "address",
          "name": "owner",
          "type": "address"
        }
      ],
      "name": "ERC721InvalidOwner",
      "type": "error"
    },
    {
      "inputs": [
        {
          "internalType": "address",
          "name": "receiver",
          "type": "address"
        }
      ],
      "name": "ERC721InvalidReceiver",
      "type": "error"
    },
    {
      "inputs": [
        {
          "internalType": "address",
          "name": "sender",
          "type": "address"
        }
      ],
      "name": "ERC721InvalidSender",
      "type": "error"
    },
    {
      "inputs": [
        {
          "internalType": "uint256",
          "name": "tokenId",
          "type": "uint256"
        }
      ],
      "name": "ERC721NonexistentToken",
      "type": "error"
    },
    {
      "inputs": [
        {
          "internalType": "address",
          "name": "owner",
          "type": "address"
        },
        {
          "internalType": "uint256",
          "name": "index",
          "type": "uint256"
        }
      ],
      "name": "ERC721OutOfBoundsIndex",
      "type": "error"
    },
    {
      "inputs": [
        {
          "internalType": "address",
          "name": "owner",
          "type": "address"
        }
      ],
      "name": "OwnableInvalidOwner",
      "type": "error"
    },
    {
      "inputs": [
        {
          "internalType": "address",
          "name": "account",
          "type": "address"
        }
      ],
      "name": "OwnableUnauthorizedAccount",
      "type": "error"
    },
    {
      "inputs": [],
      "name": "ReentrancyGuardReentrantCall",
      "type": "error"
    },
    {
      "anonymous": false,
      "inputs": [
        {
          "indexed": true,
          "internalType": "address",
          "name": "owner",
          "type": "address"
        },
        {
          "indexed": true,
          "internalType": "address",
          "name": "approved",
          "type": "address"
        },
        {
          "indexed": true,
          "internalType": "uint256",
          "name": "tokenId",
          "type": "uint256"
        }
      ],
      "name": "Approval",
      "type": "event"
    },
    {
      "anonymous": false,
      "inputs": [
        {
          "indexed": true,
          "internalType": "address",
          "name": "owner",
          "type": "address"
        },
        {
          "indexed": true,
          "internalType": "address",
          "name": "operator",
          "type": "address"
        },
        {
          "indexed": false,
          "internalType": "bool",
          "name": "approved",
          "type": "bool"
        }
      ],
      "name": "ApprovalForAll",
      "type": "event"
    },
    {
      "anonymous": false,
      "inputs": [
        {
          "indexed": true,
          "internalType": "address",
          "name": "donor",
          "type": "address"
        },
        {
          "indexed": false,
          "internalType": "string",
          "name": "badgeType",
          "type": "string"
        },
        {
          "indexed": false,
          "internalType": "uint256",
          "name": "tokenId",
          "type": "uint256"
        }
      ],
      "name": "BadgeEarned",
      "type": "event"
    },
    {
      "anonymous": false,
      "inputs": [
        {
          "indexed": true,
          "internalType": "bytes32",
          "name": "causeId",
          "type": "bytes32"
        },
        {
          "indexed": false,
          "internalType": "string",
          "name": "causeName",
          "type": "string"
        },
        {
          "indexed": false,
          "internalType": "string",
          "name": "description",
          "type": "string"
        },
        {
          "indexed": false,
          "internalType": "address",
          "name": "beneficiary",
          "type": "address"
        },
        {
          "indexed": false,
          "internalType": "uint256",
          "name": "targetAmount",
          "type": "uint256"
        }
      ],
      "name": "CauseCreated",
      "type": "event"
    },
    {
      "anonymous": false,
      "inputs": [
        {
          "indexed": true,
          "internalType": "bytes32",
          "name": "causeId",
          "type": "bytes32"
        },
        {
          "indexed": false,
          "internalType": "string",
          "name": "causeName",
          "type": "string"
        },
        {
          "indexed": false,
          "internalType": "uint256",
          "name": "finalAmount",
          "type": "uint256"
        },
        {
          "indexed": false,
          "internalType": "uint256",
          "name": "donorCount",
          "type": "uint256"
        }
      ],
      "name": "CauseTargetReached",
      "type": "event"
    },
    {
      "anonymous": false,
      "inputs": [
        {
          "indexed": true,
          "internalType": "address",
          "name": "donor",
          "type": "address"
        },
        {
          "indexed": true,
          "internalType": "bytes32",
          "name": "causeId",
          "type": "bytes32"
        },
        {
          "indexed": false,
          "internalType": "string",
          "name": "causeName",
          "type": "string"
        },
        {
          "indexed": false,
          "internalType": "uint256",
          "name": "amount",
          "type": "uint256"
        },
        {
          "indexed": false,
          "internalType": "uint256",
          "name": "impactScore",
          "type": "uint256"
        },
        {
          "indexed": false,
          "internalType": "uint256",
          "name": "timestamp",
          "type": "uint256"
        }
      ],
      "name": "DonationReceived",
      "type": "event"
    },
    {
      "anonymous": false,
      "inputs": [
        {
          "indexed": true,
          "internalType": "bytes32",
          "name": "causeId",
          "type": "bytes32"
        },
        {
          "indexed": false,
          "internalType": "string",
          "name": "causeName",
          "type": "string"
        },
        {
          "indexed": false,
          "internalType": "address",
          "name": "beneficiary",
          "type": "address"
        },
        {
          "indexed": false,
          "internalType": "uint256",
          "name": "amount",
          "type": "uint256"
        }
      ],
      "name": "FundsWithdrawn",
      "type": "event"
    },
    {
      "anonymous": false,
      "inputs": [
        {
          "indexed": true,
          "internalType": "address",
          "name": "donor",
          "type": "address"
        },
        {
          "indexed": false,
          "internalType": "uint256",
          "name": "newScore",
          "type": "uint256"
        },
        {
          "indexed": true,
          "internalType": "bytes32",
          "name": "causeId",
          "type": "bytes32"
        },
        {
          "indexed": false,
          "internalType": "string",
          "name": "causeName",
          "type": "string"
        }
      ],
      "name": "ImpactScoreUpdated",
      "type": "event"
    },
    {
      "anonymous": false,
      "inputs": [
        {
          "indexed": true,
          "internalType": "bytes32",
          "name": "causeId",
          "type": "bytes32"
        },
        {
          "indexed": false,
          "internalType": "string",
          "name": "causeName",
          "type": "string"
        },
        {
          "indexed": false,
          "internalType": "string",
          "name": "description",
          "type": "string"
        },
        {
          "indexed": false,
          "internalType": "uint256",
          "name": "targetAmount",
          "type": "uint256"
        }
      ],
      "name": "MilestoneAdded",
      "type": "event"
    },
    {
      "anonymous": false,
      "inputs": [
        {
          "indexed": true,
          "internalType": "bytes32",
          "name": "causeId",
          "type": "bytes32"
        },
        {
          "indexed": false,
          "internalType": "string",
          "name": "causeName",
          "type": "string"
        },
        {
          "indexed": false,
          "internalType": "uint256",
          "name": "milestoneIndex",
          "type": "uint256"
        },
        {
          "indexed": false,
          "internalType": "uint256",
          "name": "completionTime",
          "type": "uint256"
        }
      ],
      "name": "MilestoneCompleted",
      "type": "event"
    },
    {
      "anonymous": false,
      "inputs": [
        {
          "indexed": true,
          "internalType": "address",
          "name": "previousOwner",
          "type": "address"
        },
        {
          "indexed": true,
          "internalType": "address",
          "name": "newOwner",
          "type": "address"
        }
      ],
      "name": "OwnershipTransferred",
      "type": "event"
    },
    {
      "anonymous": false,
      "inputs": [
        {
          "indexed": true,
          "internalType": "address",
          "name": "from",
          "type": "address"
        },
        {
          "indexed": true,
          "internalType": "address",
          "name": "to",
          "type": "address"
        },
        {
          "indexed": true,
          "internalType": "uint256",
          "name": "tokenId",
          "type": "uint256"
        }
      ],
      "name": "Transfer",
      "type": "event"
    },
    {
      "inputs": [],
      "name": "BRONZE_THRESHOLD",
      "outputs": [
        {
          "internalType": "uint256",
          "name": "",
          "type": "uint256"
        }
      ],
      "stateMutability": "view",
      "type": "function"
    },
    {
      "inputs": [],
      "name": "DIAMOND_THRESHOLD",
      "outputs": [
        {
          "internalType": "uint256",
          "name": "",
          "type": "uint256"
        }
      ],
      "stateMutability": "view",
      "type": "function"
    },
    {
      "inputs": [],
      "name": "GOLD_THRESHOLD",
      "outputs": [
        {
          "internalType": "uint256",
          "name": "",
          "type": "uint256"
        }
      ],
      "stateMutability": "view",
      "type": "function"
    },
    {
      "inputs": [],
      "name": "SILVER_THRESHOLD",
      "outputs": [
        {
          "internalType": "uint256",
          "name": "",
          "type": "uint256"
        }
      ],
      "stateMutability": "view",
      "type": "function"
    },
    {
      "inputs": [
        {
          "internalType": "bytes32",
          "name": "causeId",
          "type": "bytes32"
        },
        {
          "internalType": "string",
          "name": "description",
          "type": "string"
        },
        {
          "internalType": "uint256",
          "name": "targetAmount",
          "type": "uint256"
        }
      ],
      "name": "addMilestone",
      "outputs": [],
      "stateMutability": "nonpayable",
      "type": "function"
    },
    {
      "inputs": [
        {
          "internalType": "address",
          "name": "to",
          "type": "address"
        },
        {
          "internalType": "uint256",
          "name": "tokenId",
          "type": "uint256"
        }
      ],
      "name": "approve",
      "outputs": [],
      "stateMutability": "nonpayable",
      "type": "function"
    },
    {
      "inputs": [
        {
          "internalType": "address",
          "name": "owner",
          "type": "address"
        }
      ],
      "name": "balanceOf",
      "outputs": [
        {
          "internalType": "uint256",
          "name": "",
          "type": "uint256"
        }
      ],
      "stateMutability": "view",
      "type": "function"
    },
    {
      "inputs": [
        {
          "internalType": "bytes32",
          "name": "",
          "type": "bytes32"
        },
        {
          "internalType": "address",
          "name": "",
          "type": "address"
        }
      ],
      "name": "causeDonorAmount",
      "outputs": [
        {
          "internalType": "uint256",
          "name": "",
          "type": "uint256"
        }
      ],
      "stateMutability": "view",
      "type": "function"
    },
    {
      "inputs": [
        {
          "internalType": "bytes32",
          "name": "",
          "type": "bytes32"
        },
        {
          "internalType": "uint256",
          "name": "",
          "type": "uint256"
        }
      ],
      "name": "causeMilestones",
      "outputs": [
        {
          "internalType": "string",
          "name": "description",
          "type": "string"
        },
        {
          "internalType": "uint256",
          "name": "targetAmount",
          "type": "uint256"
        },
        {
          "internalType": "bool",
          "name": "isCompleted",
          "type": "bool"
        },
        {
          "internalType": "uint256",
          "name": "completionTime",
          "type": "uint256"
        }
      ],
      "stateMutability": "view",
      "type": "function"
    },
    {
      "inputs": [
        {
          "internalType": "string",
          "name": "",
          "type": "string"
        }
      ],
      "name": "causeNameToId",
      "outputs": [
        {
          "internalType": "bytes32",
          "name": "",
          "type": "bytes32"
        }
      ],
      "stateMutability": "view",
      "type": "function"
    },
    {
      "inputs": [
        {
          "internalType": "bytes32",
          "name": "",
          "type": "bytes32"
        }
      ],
      "name": "causesById",
      "outputs": [
        {
          "internalType": "bytes32",
          "name": "id",
          "type": "bytes32"
        },
        {
          "internalType": "string",
          "name": "name",
          "type": "string"
        },
        {
          "internalType": "string",
          "name": "description",
          "type": "string"
        },
        {
          "internalType": "address payable",
          "name": "beneficiary",
          "type": "address"
        },
        {
          "internalType": "uint256",
          "name": "targetAmount",
          "type": "uint256"
        },
        {
          "internalType": "uint256",
          "name": "currentAmount",
          "type": "uint256"
        },
        {
          "internalType": "uint256",
          "name": "donorCount",
          "type": "uint256"
        },
        {
          "internalType": "bool",
          "name": "isActive",
          "type": "bool"
        },
        {
          "internalType": "bool",
          "name": "targetReached",
          "type": "bool"
        }
      ],
      "stateMutability": "view",
      "type": "function"
    },
    {
      "inputs": [
        {
          "internalType": "string",
          "name": "name",
          "type": "string"
        },
        {
          "internalType": "string",
          "name": "description",
          "type": "string"
        },
        {
          "internalType": "address payable",
          "name": "beneficiary",
          "type": "address"
        },
        {
          "internalType": "uint256",
          "name": "targetAmount",
          "type": "uint256"
        }
      ],
      "name": "createCause",
      "outputs": [],
      "stateMutability": "nonpayable",
      "type": "function"
    },
    {
      "inputs": [
        {
          "internalType": "bytes32",
          "name": "causeId",
          "type": "bytes32"
        }
      ],
      "name": "donate",
      "outputs": [],
      "stateMutability": "payable",
      "type": "function"
    },
    {
      "inputs": [
        {
          "internalType": "address",
          "name": "",
          "type": "address"
        },
        {
          "internalType": "uint256",
          "name": "",
          "type": "uint256"
        }
      ],
      "name": "donorHistory",
      "outputs": [
        {
          "internalType": "uint256",
          "name": "amount",
          "type": "uint256"
        },
        {
          "internalType": "address",
          "name": "donor",
          "type": "address"
        },
        {
          "internalType": "uint256",
          "name": "timestamp",
          "type": "uint256"
        },
        {
          "internalType": "bytes32",
          "name": "causeId",
          "type": "bytes32"
        },
        {
          "internalType": "string",
          "name": "causeName",
          "type": "string"
        },
        {
          "internalType": "uint256",
          "name": "impactScore",
          "type": "uint256"
        }
      ],
      "stateMutability": "view",
      "type": "function"
    },
    {
      "inputs": [
        {
          "internalType": "address",
          "name": "",
          "type": "address"
        }
      ],
      "name": "donorImpactScore",
      "outputs": [
        {
          "internalType": "uint256",
          "name": "",
          "type": "uint256"
        }
      ],
      "stateMutability": "view",
      "type": "function"
    },
    {
      "inputs": [
        {
          "internalType": "uint256",
          "name": "tokenId",
          "type": "uint256"
        }
      ],
      "name": "getApproved",
      "outputs": [
        {
          "internalType": "address",
          "name": "",
          "type": "address"
        }
      ],
      "stateMutability": "view",
      "type": "function"
    },
    {
      "inputs": [
        {
          "internalType": "bytes32",
          "name": "causeId",
          "type": "bytes32"
        }
      ],
      "name": "getCauseMilestones",
      "outputs": [
        {
          "components": [
            {
              "internalType": "string",
              "name": "description",
              "type": "string"
            },
            {
              "internalType": "uint256",
              "name": "targetAmount",
              "type": "uint256"
            },
            {
              "internalType": "bool",
              "name": "isCompleted",
              "type": "bool"
            },
            {
              "internalType": "uint256",
              "name": "completionTime",
              "type": "uint256"
            }
          ],
          "internalType": "struct TransparentDonationTracker.Milestone[]",
          "name": "",
          "type": "tuple[]"
        }
      ],
      "stateMutability": "view",
      "type": "function"
    },
    {
      "inputs": [
        {
          "internalType": "address",
          "name": "donor",
          "type": "address"
        }
      ],
      "name": "getDonorHistory",
      "outputs": [
        {
          "components": [
            {
              "internalType": "uint256",
              "name": "amount",
              "type": "uint256"
            },
            {
              "internalType": "address",
              "name": "donor",
              "type": "address"
            },
            {
              "internalType": "uint256",
              "name": "timestamp",
              "type": "uint256"
            },
            {
              "internalType": "bytes32",
              "name": "causeId",
              "type": "bytes32"
            },
            {
              "internalType": "string",
              "name": "causeName",
              "type": "string"
            },
            {
              "internalType": "uint256",
              "name": "impactScore",
              "type": "uint256"
            }
          ],
          "internalType": "struct TransparentDonationTracker.Donation[]",
          "name": "",
          "type": "tuple[]"
        }
      ],
      "stateMutability": "view",
      "type": "function"
    },
    {
      "inputs": [
        {
          "internalType": "address",
          "name": "donor",
          "type": "address"
        }
      ],
      "name": "getDonorImpactScore",
      "outputs": [
        {
          "internalType": "uint256",
          "name": "",
          "type": "uint256"
        }
      ],
      "stateMutability": "view",
      "type": "function"
    },
    {
      "inputs": [
        {
          "internalType": "address",
          "name": "",
          "type": "address"
        }
      ],
      "name": "hasBronzeBadge",
      "outputs": [
        {
          "internalType": "bool",
          "name": "",
          "type": "bool"
        }
      ],
      "stateMutability": "view",
      "type": "function"
    },
    {
      "inputs": [
        {
          "internalType": "address",
          "name": "",
          "type": "address"
        }
      ],
      "name": "hasDiamondBadge",
      "outputs": [
        {
          "internalType": "bool",
          "name": "",
          "type": "bool"
        }
      ],
      "stateMutability": "view",
      "type": "function"
    },
    {
      "inputs": [
        {
          "internalType": "address",
          "name": "",
          "type": "address"
        }
      ],
      "name": "hasGoldBadge",
      "outputs": [
        {
          "internalType": "bool",
          "name": "",
          "type": "bool"
        }
      ],
      "stateMutability": "view",
      "type": "function"
    },
    {
      "inputs": [
        {
          "internalType": "address",
          "name": "",
          "type": "address"
        }
      ],
      "name": "hasSilverBadge",
      "outputs": [
        {
          "internalType": "bool",
          "name": "",
          "type": "bool"
        }
      ],
      "stateMutability": "view",
      "type": "function"
    },
    {
      "inputs": [
        {
          "internalType": "address",
          "name": "owner",
          "type": "address"
        },
        {
          "internalType": "address",
          "name": "operator",
          "type": "address"
        }
      ],
      "name": "isApprovedForAll",
      "outputs": [
        {
          "internalType": "bool",
          "name": "",
          "type": "bool"
        }
      ],
      "stateMutability": "view",
      "type": "function"
    },
    {
      "inputs": [],
      "name": "name",
      "outputs": [
        {
          "internalType": "string",
          "name": "",
          "type": "string"
        }
      ],
      "stateMutability": "view",
      "type": "function"
    },
    {
      "inputs": [],
      "name": "owner",
      "outputs": [
        {
          "internalType": "address",
          "name": "",
          "type": "address"
        }
      ],
      "stateMutability": "view",
      "type": "function"
    },
    {
      "inputs": [
        {
          "internalType": "uint256",
          "name": "tokenId",
          "type": "uint256"
        }
      ],
      "name": "ownerOf",
      "outputs": [
        {
          "internalType": "address",
          "name": "",
          "type": "address"
        }
      ],
      "stateMutability": "view",
      "type": "function"
    },
    {
      "inputs": [],
      "name": "renounceOwnership",
      "outputs": [],
      "stateMutability": "nonpayable",
      "type": "function"
    },
    {
      "inputs": [
        {
          "internalType": "address",
          "name": "from",
          "type": "address"
        },
        {
          "internalType": "address",
          "name": "to",
          "type": "address"
        },
        {
          "internalType": "uint256",
          "name": "tokenId",
          "type": "uint256"
        }
      ],
      "name": "safeTransferFrom",
      "outputs": [],
      "stateMutability": "nonpayable",
      "type": "function"
    },
    {
      "inputs": [
        {
          "internalType": "address",
          "name": "from",
          "type": "address"
        },
        {
          "internalType": "address",
          "name": "to",
          "type": "address"
        },
        {
          "internalType": "uint256",
          "name": "tokenId",
          "type": "uint256"
        },
        {
          "internalType": "bytes",
          "name": "data",
          "type": "bytes"
        }
      ],
      "name": "safeTransferFrom",
      "outputs": [],
      "stateMutability": "nonpayable",
      "type": "function"
    },
    {
      "inputs": [
        {
          "internalType": "address",
          "name": "operator",
          "type": "address"
        },
        {
          "internalType": "bool",
          "name": "approved",
          "type": "bool"
        }
      ],
      "name": "setApprovalForAll",
      "outputs": [],
      "stateMutability": "nonpayable",
      "type": "function"
    },
    {
      "inputs": [
        {
          "internalType": "bytes4",
          "name": "interfaceId",
          "type": "bytes4"
        }
      ],
      "name": "supportsInterface",
      "outputs": [
        {
          "internalType": "bool",
          "name": "",
          "type": "bool"
        }
      ],
      "stateMutability": "view",
      "type": "function"
    },
    {
      "inputs": [],
      "name": "symbol",
      "outputs": [
        {
          "internalType": "string",
          "name": "",
          "type": "string"
        }
      ],
      "stateMutability": "view",
      "type": "function"
    },
    {
      "inputs": [
        {
          "internalType": "uint256",
          "name": "index",
          "type": "uint256"
        }
      ],
      "name": "tokenByIndex",
      "outputs": [
        {
          "internalType": "uint256",
          "name": "",
          "type": "uint256"
        }
      ],
      "stateMutability": "view",
      "type": "function"
    },
    {
      "inputs": [
        {
          "internalType": "address",
          "name": "owner",
          "type": "address"
        },
        {
          "internalType": "uint256",
          "name": "index",
          "type": "uint256"
        }
      ],
      "name": "tokenOfOwnerByIndex",
      "outputs": [
        {
          "internalType": "uint256",
          "name": "",
          "type": "uint256"
        }
      ],
      "stateMutability": "view",
      "type": "function"
    },
    {
      "inputs": [
        {
          "internalType": "uint256",
          "name": "tokenId",
          "type": "uint256"
        }
      ],
      "name": "tokenURI",
      "outputs": [
        {
          "internalType": "string",
          "name": "",
          "type": "string"
        }
      ],
      "stateMutability": "view",
      "type": "function"
    },
    {
      "inputs": [],
      "name": "totalDonations",
      "outputs": [
        {
          "internalType": "uint256",
          "name": "",
          "type": "uint256"
        }
      ],
      "stateMutability": "view",
      "type": "function"
    },
    {
      "inputs": [],
      "name": "totalSupply",
      "outputs": [
        {
          "internalType": "uint256",
          "name": "",
          "type": "uint256"
        }
      ],
      "stateMutability": "view",
      "type": "function"
    },
    {
      "inputs": [
        {
          "internalType": "address",
          "name": "from",
          "type": "address"
        },
        {
          "internalType": "address",
          "name": "to",
          "type": "address"
        },
        {
          "internalType": "uint256",
          "name": "tokenId",
          "type": "uint256"
        }
      ],
      "name": "transferFrom",
      "outputs": [],
      "stateMutability": "nonpayable",
      "type": "function"
    },
    {
      "inputs": [
        {
          "internalType": "address",
          "name": "newOwner",
          "type": "address"
        }
      ],
      "name": "transferOwnership",
      "outputs": [],
      "stateMutability": "nonpayable",
      "type": "function"
    },
    {
      "inputs": [
        {
          "internalType": "bytes32",
          "name": "causeId",
          "type": "bytes32"
        }
      ],
      "name": "withdrawFunds",
      "outputs": [],
      "stateMutability": "nonpayable",
      "type": "function"
    }
  ],
  "bytecode": "0x60806040523480156200001157600080fd5b50336040518060400160405280600d81526020016c446f6e6174696f6e426164676560981b8152506040518060400160405280600681526020016544424144474560d01b8152508160009081620000699190620001b8565b506001620000788282620001b8565b5050506001600160a01b038116620000aa57604051631e4fbdf760e01b81526000600482015260240160405180910390fd5b620000b581620000c1565b506001600b5562000284565b600a80546001600160a01b038381166001600160a01b0319831681179093556040519116919082907f8be0079c531659141344cd1fd0a4f28419497f9722a3daafe3b4186f6b6457e090600090a35050565b634e487b7160e01b600052604160045260246000fd5b600181811c908216806200013e57607f821691505b6020821081036200015f57634e487b7160e01b600052602260045260246000fd5b50919050565b601f821115620001b357600081815260208120601f850160051c810160208610156200018e5750805b601f850160051c820191505b81811015620001af578281556001016200019a565b5050505b505050565b81516001600160401b03811115620001d457620001d462000113565b620001ec81620001e5845462000129565b8462000165565b602080601f8311600181146200022457600084156200020b5750858301515b600019600386901b1c1916600185901b178555620001af565b600085815260208120601f198616915b82811015620002555788860151825594840194600190910190840162000234565b5085821015620002745787850151600019600388901b60f8161c191681555b5050505050600190811b01905550565b61384280620002946000396000f3fe6080604052600436106102465760003560e01c80637225506311610139578063b88d4fde116100b6578063c87b56dd1161007a578063c87b56dd1461076e578063d5d250491461078e578063de2ed893146107be578063e985e9c5146107d4578063f2fde38b146107f4578063f52a387f1461081457600080fd5b8063b88d4fde146106ba578063b8dc665e146106da578063c046454c14610707578063c1a0db301461073f578063c37067fa1461075b57600080fd5b806395d89b41116100fd57806395d89b41146105e7578063a22cb465146105fc578063a48f18e21461061c578063b1a23eae1461064c578063b7287eb51461068257600080fd5b8063722550631461052a57806377243d651461054a5780637969f3b81461056a5780637ed3840a1461059c5780638da5cb5b146105c957600080fd5b806342842e0e116101c75780636352211e1161018b5780636352211e1461049957806369a2f026146104b95780636e2b54ee146104d557806370a08231146104f5578063715018a61461051557600080fd5b806342842e0e146103dd5780634f6ccce7146103fd578063569739741461041d578063614b36e21461043957806361ec48ec1461046957600080fd5b806318160ddd1161020e57806318160ddd146103265780632280073b1461033b57806323b872dd146103705780632f745c59146103905780633e4cbf42146103b057600080fd5b806301ffc9a71461024b57806306fdde0314610280578063081812fc146102a2578063095ea7b3146102da5780630b8df9f1146102fc575b600080fd5b34801561025757600080fd5b5061026b610266366004612ccc565b610844565b60405190151581526020015b60405180910390f35b34801561028c57600080fd5b5061029561086f565b6040516102779190612d39565b3480156102ae57600080fd5b506102c26102bd366004612d4c565b610901565b6040516001600160a01b039091168152602001610277565b3480156102e657600080fd5b506102fa6102f5366004612d7a565b61092a565b005b34801561030857600080fd5b50610318674563918244f4000081565b604051908152602001610277565b34801561033257600080fd5b50600854610318565b34801561034757600080fd5b5061035b610356366004612d4c565b610939565b60405161027799989796959493929190612da6565b34801561037c57600080fd5b506102fa61038b366004612e16565b610aa1565b34801561039c57600080fd5b506103186103ab366004612d7a565b610b31565b3480156103bc57600080fd5b506103d06103cb366004612e57565b610b96565b6040516102779190612e74565b3480156103e957600080fd5b506102fa6103f8366004612e16565b610cdc565b34801561040957600080fd5b50610318610418366004612d4c565b610cfc565b34801561042957600080fd5b50610318670de0b6b3a764000081565b34801561044557600080fd5b5061026b610454366004612e57565b60166020526000908152604090205460ff1681565b34801561047557600080fd5b5061026b610484366004612e57565b60136020526000908152604090205460ff1681565b3480156104a557600080fd5b506102c26104b4366004612d4c565b610d55565b3480156104c557600080fd5b5061031867016345785d8a000081565b3480156104e157600080fd5b506102fa6104f0366004612d4c565b610d60565b34801561050157600080fd5b50610318610510366004612e57565b610f3f565b34801561052157600080fd5b506102fa610f87565b34801561053657600080fd5b506102fa610545366004612f6a565b610f9b565b34801561055657600080fd5b506102fa610565366004612fbd565b6110ec565b34801561057657600080fd5b5061058a610585366004612d7a565b61140b565b60405161027796959493929190613049565b3480156105a857600080fd5b506103186105b7366004612e57565b60176020526000908152604090205481565b3480156105d557600080fd5b50600a546001600160a01b03166102c2565b3480156105f357600080fd5b506102956114f7565b34801561060857600080fd5b506102fa61061736600461308f565b611506565b34801561062857600080fd5b5061026b610637366004612e57565b60146020526000908152604090205460ff1681565b34801561065857600080fd5b50610318610667366004612e57565b6001600160a01b031660009081526017602052604090205490565b34801561068e57600080fd5b5061031861069d366004613159565b8051602081830181018051600f8252928201919093012091525481565b3480156106c657600080fd5b506102fa6106d53660046131a2565b611511565b3480156106e657600080fd5b506106fa6106f5366004612d4c565b611529565b6040516102779190613222565b34801561071357600080fd5b506103186107223660046132a1565b601260209081526000928352604080842090915290825290205481565b34801561074b57600080fd5b506103186706f05b59d3b2000081565b6102fa610769366004612d4c565b61166d565b34801561077a57600080fd5b50610295610789366004612d4c565b611b97565b34801561079a57600080fd5b506107ae6107a93660046132c6565b611c0c565b60405161027794939291906132e8565b3480156107ca57600080fd5b50610318600d5481565b3480156107e057600080fd5b5061026b6107ef366004613317565b611ce7565b34801561080057600080fd5b506102fa61080f366004612e57565b611d15565b34801561082057600080fd5b5061026b61082f366004612e57565b60156020526000908152604090205460ff1681565b60006001600160e01b0319821663780e9d6360e01b1480610869575061086982611d50565b92915050565b60606000805461087e90613345565b80601f01602080910402602001604051908101604052809291908181526020018280546108aa90613345565b80156108f75780601f106108cc576101008083540402835291602001916108f7565b820191906000526020600020905b8154815290600101906020018083116108da57829003601f168201915b5050505050905090565b600061090c82611da0565b506000828152600460205260409020546001600160a01b0316610869565b610935828233611dd9565b5050565b600e602052600090815260409020805460018201805491929161095b90613345565b80601f016020809104026020016040519081016040528092919081815260200182805461098790613345565b80156109d45780601f106109a9576101008083540402835291602001916109d4565b820191906000526020600020905b8154815290600101906020018083116109b757829003601f168201915b5050505050908060020180546109e990613345565b80601f0160208091040260200160405190810160405280929190818152602001828054610a1590613345565b8015610a625780601f10610a3757610100808354040283529160200191610a62565b820191906000526020600020905b815481529060010190602001808311610a4557829003601f168201915b505050600384015460048501546005860154600687015460079097015495966001600160a01b0390931695919450925060ff8082169161010090041689565b6001600160a01b038216610ad057604051633250574960e11b8152600060048201526024015b60405180910390fd5b6000610add838333611de6565b9050836001600160a01b0316816001600160a01b031614610b2b576040516364283d7b60e01b81526001600160a01b0380861660048301526024820184905282166044820152606401610ac7565b50505050565b6000610b3c83610f3f565b8210610b6d5760405163295f44f760e21b81526001600160a01b038416600482015260248101839052604401610ac7565b506001600160a01b03919091166000908152600660209081526040808320938352929052205490565b6001600160a01b0381166000908152601160209081526040808320805482518185028101850190935280835260609492939192909184015b82821015610cd15760008481526020908190206040805160c081018252600686029092018054835260018101546001600160a01b03169383019390935260028301549082015260038201546060820152600482018054919291608084019190610c3690613345565b80601f0160208091040260200160405190810160405280929190818152602001828054610c6290613345565b8015610caf5780601f10610c8457610100808354040283529160200191610caf565b820191906000526020600020905b815481529060010190602001808311610c9257829003601f168201915b5050505050815260200160058201548152505081526020019060010190610bce565b505050509050919050565b610cf783838360405180602001604052806000815250611511565b505050565b6000610d0760085490565b8210610d305760405163295f44f760e21b81526000600482015260248101839052604401610ac7565b60088281548110610d4357610d4361337f565b90600052602060002001549050919050565b600061086982611da0565b610d68611ebb565b6000818152600e6020526040902054610d935760405162461bcd60e51b8152600401610ac790613395565b6000818152600e6020526040902060038101546001600160a01b03163314610def5760405162461bcd60e51b815260206004820152600f60248201526e4e6f742062656e656669636961727960881b6044820152606401610ac7565b6000816005015411610e3a5760405162461bcd60e51b81526020600482015260146024820152734e6f2066756e647320746f20776974686472617760601b6044820152606401610ac7565b60058101805460009182905560038301546040519192916001600160a01b039091169083908381818185875af1925050503d8060008114610e97576040519150601f19603f3d011682016040523d82523d6000602084013e610e9c565b606091505b5050905080610edf5760405162461bcd60e51b815260206004820152600f60248201526e151c985b9cd9995c8819985a5b1959608a1b6044820152606401610ac7565b600383015460405185917f552ece5ee486c18e726feb7514e388f06eb7fba92ecfd3877f86735791f47cb391610f279160018801916001600160a01b03909116908790613440565b60405180910390a2505050610f3c6001600b55565b50565b60006001600160a01b038216610f6b576040516322718ad960e21b815260006004820152602401610ac7565b506001600160a01b031660009081526003602052604090205490565b610f8f611ee5565b610f996000611f12565b565b610fa3611ee5565b6000848152600e6020526040902054610fce5760405162461bcd60e51b8152600401610ac790613395565b60106000858152602001908152602001600020604051806080016040528085858080601f01602080910402602001604051908101604052809392919081815260200183838082843760009201829052509385525050506020808301869052604083018290526060909201819052835460018101855593815220815191926004020190819061105c90826134b4565b506020820151816001015560408201518160020160006101000a81548160ff021916908315150217905550606082015181600301555050837feaf918692a3ebe95e367a2a077df04e55879b69c3136d6e0966242b0fd9b5fd9600e60008781526020019081526020016000206001018585856040516110de949392919061359d565b60405180910390a250505050565b6110f4611ee5565b6000801b600f878760405161110a9291906135d5565b9081526020016040518091039020541461115d5760405162461bcd60e51b8152602060048201526014602482015273436175736520616c72656164792065786973747360601b6044820152606401610ac7565b600081116111ad5760405162461bcd60e51b815260206004820152601e60248201527f54617267657420616d6f756e74206d75737420626520706f73697469766500006044820152606401610ac7565b6001600160a01b0382166111f95760405162461bcd60e51b8152602060048201526013602482015272496e76616c69642062656e656669636961727960681b6044820152606401610ac7565b6000868642604051602001611210939291906135e5565b604051602081830303815290604052805190602001209050600060405180610120016040528083815260200189898080601f016020809104026020016040519081016040528093929190818152602001838380828437600092019190915250505090825250604080516020601f8a018190048102820181019092528881529181019190899089908190840183828082843760009201829052509385525050506001600160a01b03871660208084019190915260408084018890526060840183905260808401839052600160a0850181905260c0909401839052868352600e825290912083518155908301519293508392909182019061130f90826134b4565b506040820151600282019061132490826134b4565b5060608201516003820180546001600160a01b0319166001600160a01b039092169190911790556080820151600482015560a0820151600582015560c0820151600682015560e0820151600790910180546101009384015161ffff1990911692151561ff001916929092179115159092021790556040518290600f906113ad908b908b906135d5565b908152602001604051809103902081905550817f0cc89d307594e4dc93172f6afe28c2bcf749db4fc408873f785ced0f9de0e0f78989898989896040516113f9969594939291906135f7565b60405180910390a25050505050505050565b6011602052816000526040600020818154811061142757600080fd5b6000918252602090912060069091020180546001820154600283015460038401546004850180549497506001600160a01b0390931695509093909290919061146e90613345565b80601f016020809104026020016040519081016040528092919081815260200182805461149a90613345565b80156114e75780601f106114bc576101008083540402835291602001916114e7565b820191906000526020600020905b8154815290600101906020018083116114ca57829003601f168201915b5050505050908060050154905086565b60606001805461087e90613345565b610935338383611f64565b61151c848484610aa1565b610b2b3385858585612003565b6000818152600e60205260409020546060906115575760405162461bcd60e51b8152600401610ac790613395565b600082815260106020908152604080832080548251818502810185019093528083529193909284015b82821015610cd157838290600052602060002090600402016040518060800160405290816000820180546115b390613345565b80601f01602080910402602001604051908101604052809291908181526020018280546115df90613345565b801561162c5780601f106116015761010080835404028352916020019161162c565b820191906000526020600020905b81548152906001019060200180831161160f57829003601f168201915b5050509183525050600182810154602080840191909152600284015460ff161515604084015260039093015460609092019190915291835292019101611580565b611675611ebb565b6000818152600e60205260409020546116a05760405162461bcd60e51b8152600401610ac790613395565b600034116116f05760405162461bcd60e51b815260206004820152601960248201527f446f6e6174696f6e206d75737420626520706f736974697665000000000000006044820152606401610ac7565b6000818152600e60205260409020600781015460ff166117465760405162461bcd60e51b8152602060048201526011602482015270436175736520697320696e61637469766560781b6044820152606401610ac7565b6007810154610100900460ff16156117a05760405162461bcd60e51b815260206004820152601c60248201527f43617573652074617267657420616c72656164792072656163686564000000006044820152606401610ac7565b600082815260126020908152604080832033845290915281205490036117d8576006810180549060006117d283613653565b91905055505b348160050160008282546117ec919061366c565b909155505060008281526012602090815260408083203384529091528120805434929061181a90849061366c565b9250508190555034600d6000828254611833919061366c565b9091555060009050670de0b6b3a764000061184f34606461367f565b6118599190613696565b3360009081526017602052604081208054929350839290919061187d90849061366c565b9250508190555060116000336001600160a01b03166001600160a01b031681526020019081526020016000206040518060c00160405280348152602001336001600160a01b031681526020014281526020018581526020018460010180546118e490613345565b80601f016020809104026020016040519081016040528092919081815260200182805461191090613345565b801561195d5780601f106119325761010080835404028352916020019161195d565b820191906000526020600020905b81548152906001019060200180831161194057829003601f168201915b5050509183525050602090810184905282546001808201855560009485529382902083516006909202019081559082015192810180546001600160a01b0319166001600160a01b03909416939093179092556040810151600283015560608101516003830155608081015190919060048201906119da90826134b4565b5060a082015181600501555050611a7d838360010180546119fa90613345565b80601f0160208091040260200160405190810160405280929190818152602001828054611a2690613345565b8015611a735780601f10611a4857610100808354040283529160200191611a73565b820191906000526020600020905b815481529060010190602001808311611a5657829003601f168201915b505050505061212e565b8160040154826005015410611ae75760078201805461ff0019166101001790556005820154600683015460405185927f6c3a3b192a76e65afc3989f2f34cce7ab7c331bc978a2dec30eef64a8906f07092611ade92600188019291906136b8565b60405180910390a25b611af033612267565b82336001600160a01b03167f54cac689bbedc1a4f5f4918ef6439b70fa27ee38ccabe824d571b772ab03c3ff84600101348542604051611b3394939291906136dd565b60405180910390a333600081815260176020526040908190205490518592917f8e93e85717af7b7b2bd30885833b3b4f8078ede16f6e551ad82727afc0c7506a91611b839190600188019061370c565b60405180910390a35050610f3c6001600b55565b6060611ba282611da0565b506000611bba60408051602081019091526000815290565b90506000815111611bda5760405180602001604052806000815250611c05565b80611be484612604565b604051602001611bf5929190613725565b6040516020818303038152906040525b9392505050565b60106020528160005260406000208181548110611c2857600080fd5b906000526020600020906004020160009150915050806000018054611c4c90613345565b80601f0160208091040260200160405190810160405280929190818152602001828054611c7890613345565b8015611cc55780601f10611c9a57610100808354040283529160200191611cc5565b820191906000526020600020905b815481529060010190602001808311611ca857829003601f168201915b50505050600183015460028401546003909401549293909260ff909116915084565b6001600160a01b03918216600090815260056020908152604080832093909416825291909152205460ff1690565b611d1d611ee5565b6001600160a01b038116611d4757604051631e4fbdf760e01b815260006004820152602401610ac7565b610f3c81611f12565b60006001600160e01b031982166380ac58cd60e01b1480611d8157506001600160e01b03198216635b5e139f60e01b145b8061086957506301ffc9a760e01b6001600160e01b0319831614610869565b6000818152600260205260408120546001600160a01b03168061086957604051637e27328960e01b815260048101849052602401610ac7565b610cf78383836001612697565b600080611df485858561279d565b90506001600160a01b038116611e5157611e4c84600880546000838152600960205260408120829055600182018355919091527ff3f7a9fe364faab93b216da50a3214154f22a0a2b415b23a84c8169e8b636ee30155565b611e74565b846001600160a01b0316816001600160a01b031614611e7457611e748185612896565b6001600160a01b038516611e9057611e8b84612917565b611eb3565b846001600160a01b0316816001600160a01b031614611eb357611eb385856129c6565b949350505050565b6002600b5403611ede57604051633ee5aeb560e01b815260040160405180910390fd5b6002600b55565b600a546001600160a01b03163314610f995760405163118cdaa760e01b8152336004820152602401610ac7565b600a80546001600160a01b038381166001600160a01b0319831681179093556040519116919082907f8be0079c531659141344cd1fd0a4f28419497f9722a3daafe3b4186f6b6457e090600090a35050565b6001600160a01b038216611f9657604051630b61174360e31b81526001600160a01b0383166004820152602401610ac7565b6001600160a01b03838116600081815260056020908152604080832094871680845294825291829020805460ff191686151590811790915591519182527f17307eab39ab6107e8899845ad3d59bd9653f200f220920489ca2b5937696c31910160405180910390a3505050565b6001600160a01b0383163b1561212757604051630a85bd0160e11b81526001600160a01b0384169063150b7a0290612045908890889087908790600401613754565b6020604051808303816000875af1925050508015612080575060408051601f3d908101601f1916820190925261207d91810190613791565b60015b6120e9573d8080156120ae576040519150601f19603f3d011682016040523d82523d6000602084013e6120b3565b606091505b5080516000036120e157604051633250574960e11b81526001600160a01b0385166004820152602401610ac7565b805181602001fd5b6001600160e01b03198116630a85bd0160e11b1461212557604051633250574960e11b81526001600160a01b0385166004820152602401610ac7565b505b5050505050565b6000828152601060209081526040808320600e90925282206005015490915b8254811015612127578281815481106121685761216861337f565b600091825260209091206002600490920201015460ff161580156121af57508281815481106121995761219961337f565b9060005260206000209060040201600101548210155b156122555760018382815481106121c8576121c861337f565b906000526020600020906004020160020160006101000a81548160ff021916908315150217905550428382815481106122035761220361337f565b906000526020600020906004020160030181905550847f86c221d9c90d20cf6c5cf54a39e45af8042c76d8d1ce0774c74d1c72ce4f50c085834260405161224c939291906137ae565b60405180910390a25b8061225f81613653565b91505061214d565b6001600160a01b038116600090815260116020908152604080832080548251818502810185019093528083528493849084015b8282101561239d5760008481526020908190206040805160c081018252600686029092018054835260018101546001600160a01b0316938301939093526002830154908201526003820154606082015260048201805491929160808401919061230290613345565b80601f016020809104026020016040519081016040528092919081815260200182805461232e90613345565b801561237b5780601f106123505761010080835404028352916020019161237b565b820191906000526020600020905b81548152906001019060200180831161235e57829003601f168201915b505050505081526020016005820154815250508152602001906001019061229a565b50505050905060005b81518110156123ec578181815181106123c1576123c161337f565b602002602001015160000151836123d8919061366c565b9250806123e481613653565b9150506123a6565b50674563918244f40000821015801561241e57506001600160a01b03831660009081526016602052604090205460ff16155b156124745761244c83604051806040016040528060078152602001661112505353d39160ca1b815250612a16565b6001600160a01b0383166000908152601660205260409020805460ff19166001179055505050565b670de0b6b3a764000082101580156124a557506001600160a01b03831660009081526015602052604090205460ff16155b156124f8576124d0836040518060400160405280600481526020016311d3d31160e21b815250612a16565b6001600160a01b0383166000908152601560205260409020805460ff19166001179055505050565b6706f05b59d3b20000821015801561252957506001600160a01b03831660009081526014602052604090205460ff16155b1561257e57612556836040518060400160405280600681526020016529a4a62b22a960d11b815250612a16565b6001600160a01b0383166000908152601460205260409020805460ff19166001179055505050565b67016345785d8a000082101580156125af57506001600160a01b03831660009081526013602052604090205460ff16155b15610cf7576125dc836040518060400160405280600681526020016542524f4e5a4560d01b815250612a16565b6001600160a01b0383166000908152601360205260409020805460ff19166001179055505050565b6060600061261183612a80565b600101905060008167ffffffffffffffff811115612631576126316130cd565b6040519080825280601f01601f19166020018201604052801561265b576020820181803683370190505b5090508181016020015b600019016f181899199a1a9b1b9c1cb0b131b232b360811b600a86061a8153600a850494508461266557509392505050565b80806126ab57506001600160a01b03821615155b1561276d5760006126bb84611da0565b90506001600160a01b038316158015906126e75750826001600160a01b0316816001600160a01b031614155b80156126fa57506126f88184611ce7565b155b156127235760405163a9fbf51f60e01b81526001600160a01b0384166004820152602401610ac7565b811561276b5783856001600160a01b0316826001600160a01b03167f8c5be1e5ebec7d5bd14f71427d1e84f3dd0314c0f7b2291e5b200ac8c7c3b92560405160405180910390a45b505b5050600090815260046020526040902080546001600160a01b0319166001600160a01b0392909216919091179055565b6000828152600260205260408120546001600160a01b03908116908316156127ca576127ca818486612b58565b6001600160a01b03811615612808576127e7600085600080612697565b6001600160a01b038116600090815260036020526040902080546000190190555b6001600160a01b03851615612837576001600160a01b0385166000908152600360205260409020805460010190555b60008481526002602052604080822080546001600160a01b0319166001600160a01b0389811691821790925591518793918516917fddf252ad1be2c89b69c2b068fc378daa952ba7f163c4a11628f55a4df523b3ef91a4949350505050565b60006128a183610f3f565b6000838152600760209081526040808320546001600160a01b03881684526006909252909120919250908183146128f857600083815260208281526040808320548584528184208190558352600790915290208290555b6000938452600760209081526040808620869055938552525081205550565b600854600090612929906001906137c1565b600083815260096020526040812054600880549394509092849081106129515761295161337f565b9060005260206000200154905080600883815481106129725761297261337f565b60009182526020808320909101929092558281526009909152604080822084905585825281205560088054806129aa576129aa6137d4565b6001900381819060005260206000200160009055905550505050565b600060016129d384610f3f565b6129dd91906137c1565b6001600160a01b039093166000908152600660209081526040808320868452825280832085905593825260079052919091209190915550565b600c54612a238382612bbc565b600c8054906000612a3383613653565b9190505550826001600160a01b03167fd06cdb8a5a561c4954f371279402e0b6e4fdff028968b69de562b3823dcea7168383604051612a739291906137ea565b60405180910390a2505050565b60008072184f03e93ff9f4daa797ed6e38ed64bf6a1f0160401b8310612abf5772184f03e93ff9f4daa797ed6e38ed64bf6a1f0160401b830492506040015b6d04ee2d6d415b85acef81000000008310612aeb576d04ee2d6d415b85acef8100000000830492506020015b662386f26fc100008310612b0957662386f26fc10000830492506010015b6305f5e1008310612b21576305f5e100830492506008015b6127108310612b3557612710830492506004015b60648310612b47576064830492506002015b600a83106108695760010192915050565b612b63838383612bd6565b610cf7576001600160a01b038316612b9157604051637e27328960e01b815260048101829052602401610ac7565b60405163177e802f60e01b81526001600160a01b038316600482015260248101829052604401610ac7565b610935828260405180602001604052806000815250612c39565b60006001600160a01b03831615801590611eb35750826001600160a01b0316846001600160a01b03161480612c105750612c108484611ce7565b80611eb35750506000908152600460205260409020546001600160a01b03908116911614919050565b612c438383612c51565b610cf7336000858585612003565b6001600160a01b038216612c7b57604051633250574960e11b815260006004820152602401610ac7565b6000612c8983836000611de6565b90506001600160a01b03811615610cf7576040516339e3563760e11b815260006004820152602401610ac7565b6001600160e01b031981168114610f3c57600080fd5b600060208284031215612cde57600080fd5b8135611c0581612cb6565b60005b83811015612d04578181015183820152602001612cec565b50506000910152565b60008151808452612d25816020860160208601612ce9565b601f01601f19169290920160200192915050565b602081526000611c056020830184612d0d565b600060208284031215612d5e57600080fd5b5035919050565b6001600160a01b0381168114610f3c57600080fd5b60008060408385031215612d8d57600080fd5b8235612d9881612d65565b946020939093013593505050565b60006101208b8352806020840152612dc08184018c612d0d565b90508281036040840152612dd4818b612d0d565b6001600160a01b039990991660608401525050608081019590955260a085019390935260c0840191909152151560e08301521515610100909101529392505050565b600080600060608486031215612e2b57600080fd5b8335612e3681612d65565b92506020840135612e4681612d65565b929592945050506040919091013590565b600060208284031215612e6957600080fd5b8135611c0581612d65565b60006020808301818452808551808352604092508286019150828160051b87010184880160005b83811015612f1357888303603f19018552815180518452878101516001600160a01b03168885015286810151878501526060808201519085015260808082015160c08287018190529190612ef183880182612d0d565b60a0948501519790940196909652505094870194925090860190600101612e9b565b509098975050505050505050565b60008083601f840112612f3357600080fd5b50813567ffffffffffffffff811115612f4b57600080fd5b602083019150836020828501011115612f6357600080fd5b9250929050565b60008060008060608587031215612f8057600080fd5b84359350602085013567ffffffffffffffff811115612f9e57600080fd5b612faa87828801612f21565b9598909750949560400135949350505050565b60008060008060008060808789031215612fd657600080fd5b863567ffffffffffffffff80821115612fee57600080fd5b612ffa8a838b01612f21565b9098509650602089013591508082111561301357600080fd5b5061302089828a01612f21565b909550935050604087013561303481612d65565b80925050606087013590509295509295509295565b86815260018060a01b038616602082015284604082015283606082015260c06080820152600061307c60c0830185612d0d565b90508260a0830152979650505050505050565b600080604083850312156130a257600080fd5b82356130ad81612d65565b9150602083013580151581146130c257600080fd5b809150509250929050565b634e487b7160e01b600052604160045260246000fd5b600067ffffffffffffffff808411156130fe576130fe6130cd565b604051601f8501601f19908116603f01168101908282118183101715613126576131266130cd565b8160405280935085815286868601111561313f57600080fd5b858560208301376000602087830101525050509392505050565b60006020828403121561316b57600080fd5b813567ffffffffffffffff81111561318257600080fd5b8201601f8101841361319357600080fd5b611eb3848235602084016130e3565b600080600080608085870312156131b857600080fd5b84356131c381612d65565b935060208501356131d381612d65565b925060408501359150606085013567ffffffffffffffff8111156131f657600080fd5b8501601f8101871361320757600080fd5b613216878235602084016130e3565b91505092959194509250565b60006020808301818452808551808352604092508286019150828160051b87010184880160005b83811015612f1357603f1989840301855281516080815181865261326f82870182612d0d565b838b0151878c01528984015115158a880152606093840151939096019290925250509386019390860190600101613249565b600080604083850312156132b457600080fd5b8235915060208301356130c281612d65565b600080604083850312156132d957600080fd5b50508035926020909101359150565b6080815260006132fb6080830187612d0d565b6020830195909552509115156040830152606090910152919050565b6000806040838503121561332a57600080fd5b823561333581612d65565b915060208301356130c281612d65565b600181811c9082168061335957607f821691505b60208210810361337957634e487b7160e01b600052602260045260246000fd5b50919050565b634e487b7160e01b600052603260045260246000fd5b60208082526014908201527310d85d5cd948191bd95cc81b9bdd08195e1a5cdd60621b604082015260600190565b600081546133d081613345565b8085526020600183811680156133ed576001811461340757613435565b60ff1985168884015283151560051b880183019550613435565b866000528260002060005b8581101561342d5781548a8201860152908301908401613412565b890184019650505b505050505092915050565b60608152600061345360608301866133c3565b6001600160a01b039490941660208301525060400152919050565b601f821115610cf757600081815260208120601f850160051c810160208610156134955750805b601f850160051c820191505b81811015612125578281556001016134a1565b815167ffffffffffffffff8111156134ce576134ce6130cd565b6134e2816134dc8454613345565b8461346e565b602080601f83116001811461351757600084156134ff5750858301515b600019600386901b1c1916600185901b178555612125565b600085815260208120601f198616915b8281101561354657888601518255948401946001909101908401613527565b50858210156135645787850151600019600388901b60f8161c191681555b5050505050600190811b01905550565b81835281816020850137506000828201602090810191909152601f909101601f19169091010190565b6060815260006135b060608301876133c3565b82810360208401526135c3818688613574565b91505082604083015295945050505050565b8183823760009101908152919050565b82848237909101908152602001919050565b60808152600061360b60808301888a613574565b828103602084015261361e818789613574565b6001600160a01b03959095166040840152505060600152949350505050565b634e487b7160e01b600052601160045260246000fd5b6000600182016136655761366561363d565b5060010190565b808201808211156108695761086961363d565b80820281158282048414176108695761086961363d565b6000826136b357634e487b7160e01b600052601260045260246000fd5b500490565b6060815260006136cb60608301866133c3565b60208301949094525060400152919050565b6080815260006136f060808301876133c3565b6020830195909552506040810192909252606090910152919050565b828152604060208201526000611eb360408301846133c3565b60008351613737818460208801612ce9565b83519083019061374b818360208801612ce9565b01949350505050565b6001600160a01b038581168252841660208201526040810183905260806060820181905260009061378790830184612d0d565b9695505050505050565b6000602082840312156137a357600080fd5b8151611c0581612cb6565b6060815260006136cb6060830186612d0d565b818103818111156108695761086961363d565b634e487b7160e01b600052603160045260246000fd5b6040815260006137fd6040830185612d0d565b9050826020830152939250505056fea2646970667358221220ef125508de16b5de60a17dee8d3853945d7ca1835f8c50e99fceef6b112d354c64736f6c63430008140033",
  "linkReferences": {},
  "deployedLinkReferences": {}
}